:020000040800F2
:10000000C84D0020E101000871440008AD38000827
:100010006D440008BD0900083F4D000800000000C5
:10002000000000000000000000000000490100087E
:10003000170D0008000000008D010008154A000897
:10004000F7010008F7010008F7010008F7010008B0
:10005000F7010008F7010008F7010008F7010008A0
:10006000F7010008F7010008F7010008F701000890
:10007000F7010008F7010008F7010008F701000880
:10008000F7010008F7010008F7010008F701000870
:10009000F7010008F7010008F7010008F701000860
:1000A000F7010008F7010008F7010008F701000850
:1000B000F7010008F7010008F7010008F701000840
:1000C000F7010008F7010008F7010008F701000830
:1000D000F7010008F70100083D4B0008F701000890
:1000E000F7010008F7010008F7010008F701000810
:1000F000F7010008F7010008F7010008F701000800
:10010000F7010008F7010008F7010008F7010008EF
:10011000F7010008F7010008F7010008F7010008DF
:10012000F7010008F7010008F7010008F7010008CF
:10013000DFF810D000F0D4FB004800479191000890
:10014000AFF30080C84D0020224B19680868B0E862
:10015000F00F80F30988BFF36F8F4FF0000080F33A
:1001600011884EF00D0E7047000000000648006830
:10017000006880F3088862B661B6BFF34F8FBFF3A3
:100180006F8F00DF00BF00BF08ED00E0EFF30980D4
:10019000BFF36F8F0F4B1A6820E9F00F106008B59E
:1001A0004FF0BF0080F31188BFF34F8FBFF36F8F05
:1001B00009F0CCFF4FF0000080F31188BDE8084043
:1001C00019680868B0E8F00F80F30988BFF36F8FF3
:1001D000704700BFE4000020EFF305807047000087
:1001E00005480047FEE7FEE7FEE7FEE7FEE7FEE71D
:1001F000FEE7FEE7FEE7FEE73101000810B5431A0F
:10020000934209D28318881803E010F8011D03F8FF
:10021000011D521EF9D210BD40EA01039B0703D015
:1002200009E008C9121F08C0042AFAD203E011F835
:10023000013B00F8013B521EF9D210BDD2B201E0E1
:1002400000F8012B491EFBD270470022F6E710B5DB
:1002500013460A4604461946FFF7F0FF204610BD34
:1002600030B505462A460B4612F8010B13F8014B30
:1002700008B1A042F8D01CB1002802D06D1CF1E7F3
:10028000284630BD421C10F8011B0029FBD1801A02
:100290007047F0B480EA0102D40F4200B2EB410F84
:1002A00002D20246084611464A0042D0C30DDDB2D2
:1002B000C1F3C752AD1A202D35DAC1F3160141F44E
:1002C000000204B15242C5F1200602FA06F12A41A9
:1002D0001044B3EBD05F23D0C4B1012DA0EBC350C9
:1002E00009DCF0BC4FF0004202EAC352DBB200F579
:1002F000000000F0B2B8400000F1807000EBC35085
:10030000A0F1807040EAD170490009E0490841EA53
:10031000C071A0EBC35000F50000400800EBC350D3
:10032000F0BC00F091B86142012202EB4101001BD8
:10033000F6E7F0BC704781F00041AAE780F000408A
:10034000A7E70EB540F2334102910021CDE900113B
:100350000A460B4600F0BEF803B000BD00F00042B4
:1003600030F000400AD0C10D01F56071C0F31600F5
:1003700042EA0151C208400711437047002001467C
:10038000704701F0004330B421F0004150EA01020F
:1003900006D00A0DA2F56072C1F31301002A02DC37
:1003A00030BC00207047440F44EAC104C100E0188B
:1003B00030BC00EBC25000F047B830B50B460146E8
:1003C00000202022012409E021FA02F59D4205D3F4
:1003D00003FA02F5491B04FA02F52844151EA2F19E
:1003E0000102F1DC30BD2DE9F05F054600209246A8
:1003F0009B4688460646814640241BE028464146E7
:100400004746224600F08DFA53465A46C01A91419B
:1004100010D311461846224600F074FA2D1A67EBE5
:1004200001084F4622460120002100F06BFA17EB2D
:1004300000094E41201EA4F10104DFDC484631468C
:100440002A464346BDE8F09F0029A8BF7047401CDC
:10045000490008BF20F00100704710B4B0FA80FCDA
:1004600000FA0CF050EA010404BF10BC704749B117
:10047000CCF1200421FA04F411FA0CF118BF012187
:1004800021430843A3EB0C01CB1D4FEA00614FEA67
:10049000102042BF002010BC704700EBC350104436
:1004A0000029A4BF10BC7047401C490008BF20F0C1
:1004B000010010BC704710B5141E73F1000408DA77
:1004C000401C41F1000192185B411A4301D120F018
:1004D000010010BD2DE9F04D92469B4611B1B1FAD5
:1004E00081F202E0B0FA80F22032904600F00AFA7F
:1004F00004460F4640EA0A0041EA0B0153465A46B9
:10050000084313D0114653EA010019D0C8F1400244
:10051000504600F006FA05460E46504659464246F9
:1005200000F0F0F9084305D0012004E020463946E8
:10053000BDE8F08D0020054346EAE0762C433743C2
:100540000A986305E40AA0EB08000022FD0A44EAC9
:1005500047540A3002D500200146E9E70105101989
:100560006941DDE9084500196941BDE8F04DA2E7A0
:100570002DE9FE4F804681EA0300C00F0C46009033
:1005800021F0004123F00045B8EB0200A94105D25B
:100590004046214690461C460B46024623F000404A
:1005A000104347D0270DC7F30A00C3F30A51029046
:1005B000401A019040286BDAC3F3130040F4801B0B
:1005C0000098924620B10023D2EB030A63EB0B0B99
:1005D00001985946C0F14002504600F093F9064692
:1005E0000D4650465946019A00F0ABF910EB080051
:1005F0006141002487EA115284EAE7731A4340D02C
:10060000009A62B3019A012A4FEA075215DC001BD7
:1006100061EB02014FF0004202EA0752CDE90042CD
:10062000001C41F5801132462B46FFF753FF03B003
:10063000BDE8F08F40462146F9E7001B61EB02015F
:10064000001C41F5801300185B412018A2F500172B
:1006500047EB030140EAD570B6196D4111E06D0812
:100660004FEA360645EAC0754FEA0752001B61EBB8
:100670000201001C41F5801149084FEA30000019C1
:10068000514132462B4603B0BDE8F04FFFF713BF90
:100690000098012240000023D0EB020263EBE073DC
:1006A000009821464FEAE074B8EB000061EB0401CA
:1006B000E9E783F000435BE781F0004158E72DE96B
:1006C000FE4F81EA030404F0004421F0004100944D
:1006D0004FF0000B23F0004350EA01045ED052EAD1
:1006E00003045BD0C3F30A54C1F30A552C44A4F2AB
:1006F000F3340194A0FB0254C1F3130141F48011BF
:10070000C3F3130343F4801301FB024400FB034EC5
:10071000840A970A44EA815447EA8357A4FB07688E
:1007200002958D0A05FB07854FEA932C04FB0C54B8
:100730002705029D4FEA065847EA1637B5EB08052C
:100740006EEB070C870E920E47EA811742EA83127E
:10075000A7FB0201B6EB0B0164EB00042B0D43EA8F
:100760000C335E1844EB1C50DA465146E7FB02019D
:10077000C5F313044FEA0B3343EA14534FEA043230
:10078000019C43EA0603A4F10C040294009CCDE909
:1007900000B4FFF79FFE03B0BDE8F08F00200146D4
:1007A000F9E72DE9F04D81EA030404F0004B21F054
:1007B000004514464FF0000A23F0004150EA0502BC
:1007C00020D054EA01021DD0C5F30A570246C5F3F2
:1007D0001303C1F31300C1F30A5640F4801543F428
:1007E0008013A7EB0608101BD64608F2FD3873EB02
:1007F000050002D308F1010801E092185B41B8F14D
:10080000000F03DA00200146BDE8F08D00204FF410
:100810008011064684460EE0171B73EB050705D3CF
:10082000121B63EB050306434CEA010C49084FEA2F
:10083000300092185B4150EA0107EDD152EA030003
:1008400012D082EA040083EA0501084305D0101B98
:10085000AB4106D20122002306E000224FF0004304
:1008600002E06FF0010253101AEB06004CEB085146
:1008700010EB0A0041EB0B01BDE8F04DFFF71BBE8A
:10088000C1F30A52C1F3130140F2FF3341F4801166
:100890009A4202DA00200146704740F233439A42FE
:1008A000A2F2334202DC524200F03BB800F02AB818
:1008B00030B5041E71F1000404DB4FF000444042E7
:1008C00064EB0101141E73F1000405DB1C464FF0BC
:1008D0000043524263EB0403994208BF904230BD8B
:1008E000064C074D06E0E06840F0010394E807007D
:1008F00098471034AC42F6D3FFF71EFC38B7000817
:1009000058B70008202A04DB203A00FA02F1002040
:1009100070479140C2F1200320FA03F3194390403D
:100920007047202A04DB203A21FA02F000217047A8
:1009300021FA02F3D040C2F1200291400843194647
:100940007047202A06DBCB17203A41FA02F043EA2F
:10095000E07306E041FA02F3D040C2F12002914078
:1009600008431946704770B58C1810F8015B15F0F4
:10097000070301D110F8013B2A1106D110F8012B11
:1009800003E010F8016B01F8016B5B1EF9D12B0736
:1009900005D40023521E0DD401F8013BFAE710F8EC
:1009A000013BCB1A921C03E013F8015B01F8015BD9
:1009B000521EF9D5A142D8D3002070BD00BFFEE77A
:1009C00010B586B00446012144F2040003F0A8FFEC
:1009D0004FF4C060ADF8140018208DF81700032004
:1009E0008DF8160005A9154800F03CFD0194002083
:1009F000ADF80800ADF80A00ADF80C00ADF8100035
:100A00000C20ADF80E0001A90D4804F023F9402197
:100A10000B4804F0ADF8012240F22551084804F0DB
:100A2000F3F8012240F22771054804F0EDF80121A6
:100A3000034804F0A6F8002006B010BD00080140ED
:100A40000038014010B547214CF24F3003F0FCFF55
:100A5000002010BD70B504460CB1207E10B94FF0D7
:100A6000FF3070BD002503E06D1C012003F0E6FCA3
:100A7000A28891B2206800F080FD08B1642DF3DBFC
:100A8000642D02DB6FF00100EBE7002503E06D1C35
:100A9000012003F0D3FCA28891B2206800F06DFD24
:100AA00008B9642DF3DB642D02DB6FF00200D8E798
:100AB0000020D6E7F8B504460D46164614B94FF0A7
:100AC000FF30F8BD2F48854204D10121042003F0F6
:100AD00027FF32E02C48854204D10121082003F091
:100AE0001FFF2AE02948854204D10121102003F08C
:100AF00017FF22E02648854204D10121202003F07F
:100B00000FFF1AE02348854204D10121402003F061
:100B100007FF12E02048854204D10121802003F024
:100B2000FFFE0AE01D48854204D10121801503F033
:100B3000F7FE02E01AA007F00BFE10208DF803006C
:100B400003208DF80200A08880B2ADF8000069464D
:100B5000206800F087FC256066600021A160E160EC
:100B600000202061606101202076A28891B2206877
:100B700000F00EFD204600F098F82046FFF76AFFCF
:100B80009FE7000000080140000C014000100140F8
:100B90000014014000180140001C014000200140E9
:100BA00044485431315F496E697420706F7274200B
:100BB0006E6F0D0A0000000070B50446002504E0C9
:100BC000681CC5B2012003F039FCA28891B22068EC
:100BD00000F0D3FC08B1642DF2DB002504E0681CB2
:100BE000C5B2012003F02AFCA28891B2206800F06F
:100BF000C4FC08B9642DF2DB282003F01FFCA28896
:100C000091B2206800F0B9FC08B1012070BD00204D
:100C1000FCE770B506460024002507E06006040ED8
:100C20003046FFF7C9FF0443681CC5B2082DF5DB49
:100C3000204670BD7CB504460CB1207E10B94FF043
:100C4000FF307CBD204600F030F82046FFF702FF61
:100C500030BB002506E02046FFF7DBFF0DF805005E
:100C6000681CC5B2052DF6DB9DF800009DF801104B
:100C700008449DF8021008449DF8031008449DF8AC
:100C8000041088420FD19DF80000FFF75AFBC4E919
:100C900004019DF80200FFF754FBC4E9020102E0E1
:100CA0006FF00100CDE70020CBE738B504460CB16A
:100CB000207E10B94FF0FF3038BD10208DF80300B2
:100CC00003208DF80200A08880B2ADF800006946CC
:100CD000206800F0C7FBA28891B2206800F056FCA3
:100CE000142009F04FF9A28891B2206800F050FC5E
:100CF0001E2003F0A3FB04208DF8030003208DF8D1
:100D00000200A08880B2ADF800006946206800F0BB
:100D1000A9FB0020D0E77047F0B585B005460DB1BE
:100D2000287918B94FF0FF3005B0F0BD002400213C
:100D3000284600F0E1F90021284600F053F9044666
:100D40001CB958A007F004FD02E059A007F000FD0F
:100D50000321284600F0D0F90321284600F042F98B
:100D600004461CB956A007F0F3FC02E059A007F0B6
:100D7000EFFC0121284600F0BFF90121284600F0D0
:100D800031F904461CB959A007F0E2FC02E05AA070
:100D900007F0DEFC00BF0A21284600F0ADF90A2169
:100DA000284600F01FF904461CB957A007F0D0FCF4
:100DB00005E059A007F0CCFC284600F053F90821C3
:100DC000284600F099F90821284600F00BF904465E
:100DD000002C28D155A007F0BBFC57A105F1180045
:100DE000FFF73EFA0646F71D3E4655A13046FFF78F
:100DF00037FA064600203070394652A007F0A8FCAA
:100E0000314653A007F0A4FC14216846FFF71DFAF1
:100E100051A33A4651A1684607F0AAFC69464AA088
:100E200007F096FC00BF0921284600F065F909216A
:100E3000284600F0D7F804461CB94DA007F088FCFE
:100E400005E051A007F084FC284600F00BF90B21C7
:100E5000284600F051F90B21284600F0C3F804465B
:100E60001CB950A007F074FC06E052A007F070FC1B
:100E7000284600F0F7F88EE70C21284600F03CF9F0
:100E80000C21284600F0AEF804461CB94EA007F02D
:100E90005FFC05E04FA007F05BFC284600F0E2F89D
:100EA000002041E74154206973206F6B0D0A000058
:100EB0004154206973206661696C0D0A00000000CE
:100EC000636F6E666967206D6F6465206973206F5C
:100ED0006B0D0A00636F6E666967206D6F64652035
:100EE0006973206661696C0D0A000000525354203A
:100EF0006973206F6B0D0A0052535420697320668A
:100F000061696C0D0A000000636F6E6E656374208A
:100F10006973206F6B0D0A00636F6E6E65637420DA
:100F20006973206661696C0D0A00000067657420B2
:100F30006970206F6B0D0A00535441495000000046
:100F40002200000069703A2025730D0A000000009D
:100F5000703A2025730D0A003830000069703A207D
:100F600025730D0A706F72743A202573000000001B
:100F7000636F6E6E65637420736572766572206947
:100F800073206F6B0D0A0000636F6E6E65637420D3
:100F9000736572766572206973206661696C0D0AEB
:100FA000000000007374617274206D6F6465206FBF
:100FB0006B0D0A007374617274206D6F6465206636
:100FC00061696C0D0A0000007374617274206F6BAC
:100FD0000D0A00007374617274206661696C0D0AF9
:100FE0000000000070B504460E460CB1207910B91F
:100FF0004FF0FF3070BD642500BF06EB46000A4A83
:1010000002EB8000416804F11800FFF729F908B1EC
:101010000020EFE7642008F0B5FF6D1E002DECDC2A
:101020006FF00100E6E700001400002070B50446F0
:101030000D46164614B94FF0FF3070BD25600120F3
:101040002071A0600648E0604FF40060206100203D
:10105000606104F118002169FFF7F7F80020ECE760
:1010600079100008014609B1087910B94FF0FF3036
:10107000704700BFFCE7000070B504460D460CB198
:10108000207910B94FF0FF3070BDD4E90410B0FBE7
:10109000F1F201FB120104F1180045546069401C93
:1010A0006061D4E90410884203D303A0616907F0AA
:1010B0004FFB00BFE8E70000657370383236362D0D
:1010C0003E72785F6C656E6774683A2025640D0A1D
:1010D0000000000010B504460CB1207910B94FF0A3
:1010E000FF3010BD04F118002169FFF7AEF80020B1
:1010F000606100BFF5E7000070B590B005460C4692
:101100000DB1287918B94FF0FF3010B070BD3421FF
:1011100003A8FFF79AF82846FFF7DCFF032C13D14A
:1011200004EB4400714951F8202071A103A8AB6879
:1011300007F01EFB03A8FFF7A5F80646F2B203A9C5
:10114000284600F045F9CFE0092C1ED1A8680128F7
:10115000F9D169A069A1CDE9001004EB440063490D
:1011600051F8202069A36AA103A807F001FB03A995
:101170006CA007F0EDFA03A8FFF784F80646F2B278
:1011800003A9284600F024F9AEE0042C19D16AA086
:10119000009004EB4400554951F8202069A36BA14D
:1011A00003A807F0E5FA03A95EA007F0D1FA03A8A7
:1011B000FFF768F80646F2B203A9284600F008F9DE
:1011C00092E0052C17D104EB4400484951F8202047
:1011D000012347A103A807F0CBFA03A951A007F008
:1011E000B7FA03A8FFF74EF80646F2B203A928465D
:1011F00000F0EEF878E0062C19D13FA0009004EB47
:1012000044003A4951F8202056A357A103A807F0FB
:10121000AFFA03A943A007F09BFA03A8FFF732F83F
:101220000646F2B203A9284600F0D2F85CE00A2C88
:1012300019D150A0009004EB44002C4951F8202013
:101240004FA350A103A807F093FA03A935A007F014
:101250007FFA03A8FFF716F80646F2B203A928465C
:1012600000F0B6F840E00B2C17D104EB44001F4906
:1012700051F8202001231EA103A807F079FA03A941
:1012800028A007F065FA03A8FEF7FCFF0646F2B2B5
:1012900003A9284600F09CF826E00C2C11D13DA1B2
:1012A00003A807F065FA03A91EA007F051FA03A8E6
:1012B000FEF7E8FF0646F2B203A9284600F088F8D8
:1012C00012E004EB4400094951F8202035A103A89D
:1012D00007F04EFA03A8FEF7D5FF0646F2B203A9BF
:1012E000284600F075F800BF00200EE7140000202B
:1012F00025733D25640D0A00383000003138332E47
:101300003233302E34302E3333000000544350003B
:1013100025733D222573222C222573222C25730D43
:101320000A00000073656E6420617420636D643A86
:101330002025730D0A00000031323334353637383A
:1013400000000000576946690000000025733D2237
:101350002573222C222573222C31312C302C342C55
:10136000300D0A003100000025733D25732C2573D4
:101370000D0A000031373737353438313932310012
:101380006874710025733D222573222C2225732257
:101390000D0A000041542B43495053454E440D0A59
:1013A0000000000025730D0A0000000002460AB18B
:1013B000107910B94FF0FF30704700BF10680088F7
:1013C00000F040000028F9D0106881800020F3E789
:1013D0002DE9F04104460E4617460CB1207918B9A4
:1013E0004FF0FF30BDE8F0810020054605E0715D5B
:1013F0002046FFF7DBFF681C0546BD42F7DB00BF58
:10140000F0E770B504460E4615460CB1207910B9C8
:101410004FF0FF3070BDEAB231462046FFF7D8FFEB
:1014200000BFF7E710B5002001F078FA6FF07F40B9
:1014300001F07FFA012001F0D7FA002001F0E2FA72
:10144000002001F0EFFA002001F084FA044800685F
:1014500001F08CFABDE81040002001F097BA0000BE
:101460003C0100202DE9F041024600250026002025
:1014700000230024002791F803C00CF00F0591F819
:1014800003C00CF0100CBCF1000F03D091F802C0A7
:101490004CEA050591F800C0BCF1000F31D014688A
:1014A00000202BE04FF0010C0CFA00F3B1F800C063
:1014B0000CEA03069E4220D183004FF00F0C0CFA79
:1014C00003F7BC4305FA03FC4CEA040491F803C09B
:1014D000BCF1280F06D14FF0010C0CFA00FCC2F849
:1014E00014C00AE091F803C0BCF1480F05D14FF0D9
:1014F000010C0CFA00FCC2F810C0401C0828D1D323
:101500001460B1F800C0BCF1FF0F34DD5468002056
:101510002EE000F1080C4FF0010808FA0CF3B1F8C6
:1015200000C00CEA03069E4221D183004FF00F0C4D
:101530000CFA03F7BC4305FA03FC4CEA040491F8E7
:1015400003C0BCF1280F05D100F1080C08FA0CF813
:10155000C2F8148091F803C0BCF1480F07D100F124
:10156000080C4FF0010808FA0CF8C2F81080401C73
:101570000828CED35460BDE8F0810246002093686D
:101580000B400BB1012000E0002070474161704723
:10159000016170472DE9F04FDFF828B191B04FF0AD
:1015A000FF35DBF80030B3F922100691DE69B3F99C
:1015B00024A0F469A189814206D8E289824203D33A
:1015C000471AD4F8008012E0D4E90181002970D0D4
:1015D0000A8882426DD84D8885426AD3801A82B2C9
:1015E000486800EB8200B0F90070B0F90250781C36
:1015F0005FD0307EA27C014600FB02F9207CCDE961
:101600000810B3F92A60304602F01EFDC0B20E90F9
:10161000DBF8001007FB0980A37C8A6B0127CDE96A
:101620000402CDE90273C869DDE90832C17E807E1B
:10163000CDE900015146069802F06CF9681C18D0FB
:1016400046F0020002F000FDDBF80000A37C05FB81
:101650000981826BCDE90273CDE90412C069DDE92D
:101660000832C17E807ECDE900015146069802F025
:1016700051F9DBF800005D46C069417E007E814281
:1016800014D9022E12D086F0040002F0DDFC286886
:10169000C069027EC37E857E02FB03A1437E099A58
:1016A0000698534402FB050202F098FA0E9802F0E5
:1016B000CBFCDBF80000627C418C1144418411B00A
:1016C000BDE8F08F4001002004480068C069C0698F
:1016D00009B1027C0A60407C704700004001002094
:1016E000022008807047C06982898A4202D8C28974
:1016F0008A4210D2806880B102888A420DD843881D
:101700008B420AD3406800EB8100A0EB8200B0F965
:101710000000002801DB0120704700207047000016
:1017200070B500240E4D16E028690E4900EBC41078
:10173000001D78220968FEF761FD2869002100EB91
:10174000C410016000F10C018161011D0A1DC0E996
:101750000F12641C4164A8688442E5DB70BD000080
:10176000740100204001002070B50D490B4808604D
:10177000084602F06DF80A4C143CA068C5012846E2
:1017800000F068F82A460021206102F069F84FF065
:10179000FF302060BDE8704001F022BB9D79000859
:1017A0008801002010B5040009D000F0EDFB2046B0
:1017B00004F07EFB044601F0EBFA204610BD002049
:1017C00010BD38B5054600F0DFFB2846FFF7EAFFFD
:1017D000040009D000F0BAF82A460021009002F077
:1017E0003FF8684600F0E2F801F0D2FA204638BD32
:1017F000024A106021F00300506070478C480020BE
:1018000010B5040016D000F0BFFB0B48006B10F8B9
:10181000341059B1022909D2042101EBC401415805
:10182000486804F009FB204606F0C0F9BDE8104006
:1018300001F0AEBA10BD0000D0470020002805D04E
:10184000034A916B016001B14860906370470000EA
:10185000D04700202DE9F041044605F091FF2648CD
:10186000E41C24F00305C16B2D1DA94200D90D46CF
:10187000846B13E054F8042CAA420ED184B1216881
:1018800009B162684A60616809B122680A60826BC6
:10189000A2422ED1216881632BE02468002CE9D17B
:1018A0008046416B80680F1857F8040C3E1A306868
:1018B00038B1002006F0D4F957F8040C3E1A30680D
:1018C000B8B97068A84214DB3044441B304606F0B7
:1018D0007FF9D8F80810491BC8F80810D8F810107C
:1018E0002944C8F8101070683146401B04F0A4FA6F
:1018F00020C42046BDE8F081D047002010B5002468
:1019000005F03EFF0C490F2001EBC002126C1AB12A
:1019100001EBC000006C08E0401EF5D508E041680E
:10192000A14200D90C46806810B180680028F6D129
:10193000A4F10C0010BD0000D0470020024841690E
:10194000491C416170470000D047002005498A6961
:10195000521C8A61096B01EBC0010A78521C0A70A3
:1019600000F03CB8D047002010B500F00DFBFFF7A9
:10197000C5FF64220849B0F5800F04D990FBF2F44A
:10198000C869444303E0C9694143B1FBF2F401F083
:10199000FFF9204610BD0000D047002002484169F1
:1019A000491E416170470000D04700200A49026883
:1019B0000B6B52F8082C03EBC2021378022B03D3F3
:1019C0008B690BB15B1E8B611178491E1170002170
:1019D0000160084670470000D0470020002806D06C
:1019E0000349042202EBC000096B08580830704715
:1019F000D047002010B5C2B2CBB2D21A02D5C2F184
:101A0000000212B293B2C0F30722C1F3072403FB12
:101A100003F3121B01D5524212B2000C92B2A0EB9A
:101A2000114002FB023200B2002801DA404200B24B
:101A300080B200FB002010BD10B50021084600F068
:101A40005BFA40F6FF725042BDE810401346014673
:101A5000AFF300802DE9FC411C4615460E460746B3
:101A600000F092FA042002F0EFFA80461248C068B3
:101A7000C16C006D0F4406440D440444ADF8007081
:101A8000ADF80450ADF80260ADF80640684603F0CA
:101A900065FE07E023462A463146384602F09EF8A6
:101AA00003F01EFE0028F5D1404602F0CDFA01F009
:101AB0006FF9BDE8FC810000340100202DE9F04100
:101AC0001C4616460D460746022B02DB0020BDE8E9
:101AD000F0811C20FFF7BEFE0028F8D00DB1056193
:101AE0000AE0094A52F8241009B905E011460A68CB
:101AF000002AFBD1096901618461868200210160AD
:101B00004160C0E90217E2E75801002070B51D46A8
:101B1000FFF7D4FF040001D000F00EF8E068006881
:101B200020B90348006800EB85008465204670BD3D
:101B300040010020FFF782BE70B590B38269022A8F
:101B400030DA1C4C54F8221019B944F822002FE066
:101B500019464B68002BFBD106E0CB68C5681B68B3
:101B60002D68AB4203DD09680029F6D11AE0C1B146
:101B7000CB68C6681B683668B3420CD1838A012BD8
:101B800005D008E01946DB681B68AB4203DB0B6835
:101B9000002BF7D129B14B6833B118604A68426015
:101BA00004E0FFE7012070BD44F8220048600160B6
:101BB000002070BD5801002010B503E00468FFF755
:101BC000BBFF20460028F9D110BD06F02BBA00005B
:101BD0002DE9F0410026DFF834800D4F354600BF77
:101BE00058F8254009E0E0680068385C20B12046DC
:101BF00006F018FA266026462468002CF3D16D1CE6
:101C0000022DEDDB3046BDE8F081000058010020D8
:101C10000CAD0008022801DB00207047054951F88F
:101C2000200004E0C16809680029F6D00068002897
:101C3000F8D17047580100202DE9F041044601F029
:101C4000CAF806191EE000BF00F0C2F8052F00DD3B
:101C5000052700F099F911480568FFF76FFE2C0081
:101C600017D000BF01F094F8641EFBD1384601F094
:101C7000A7F81DB100F088F96D1EFBD1FFF78EFEAD
:101C800001F086F801F0A7F8371A002FDCDCBDE878
:101C9000F081384601F094F8F0E700008001002060
:101CA0002DE9FC4706005FD000F06EF900F0DAF88D
:101CB0003C4C81462068B0F9228000F0EFF82168A2
:101CC00007468A8CD01B888441E000BF47F6FF712D
:101CD000304601F08BFC82460146304601F05CFC48
:101CE0002168054691F82C0000F00300012841D03E
:101CF00002283BD000204A8C101A4884ADF800001E
:101D00006A1E1044ADF80400888CADF80200A9F1F9
:101D100001010844ADF806006A465146304601F01C
:101D20001DFA2168BDF8020088845146304600F053
:101D30000BFF064430780A281ED00D281CD0BDF8B1
:101D40000000216828444884307818B1761C307827
:101D50000028BBD12068818C39448184818D21F099
:101D60000301818501F014F8BDE8FC8705EBD5700F
:101D70004010C0E72846BEE7206890F82C1001F01C
:101D8000030101290BD0022909D0018C418431784B
:101D90000A29D9D1828C02EB09018184D4E7A0F809
:101DA0002280F4E74001002070B514460D46064637
:101DB00000F0EAF805480068458484843046FFF75F
:101DC0006FFFBDE8704000F0E3BF0000400100205D
:101DD00010B5002400E0012400F004F80028FAD136
:101DE000204610BD064810B50068002410B1804799
:101DF00000B1012403F04CF900B10124204610BDCC
:101E000060010020034951F82000C1688A6A082156
:101E1000104700005801002010B5044600F0B4F847
:101E2000054800210068C069426820469047044682
:101E300000F0AEFF204610BD4001002070B50C46FA
:101E4000054600F0A1F8064821460068C0694268CE
:101E500028469047044600F09BFF204670BD0000D6
:101E60004001002010B500F08FF804480068C069F8
:101E7000447E00F08DFF204610BD00004001002090
:101E800070B50C46054600F07FF82146284601F063
:101E9000C9FBBDE8704000F07BBF000010B5002416
:101EA00000F072F80B48006890F82C1001F00C015B
:101EB000042904D0082906D00C2907D103E0C06901
:101EC000047E641E02E0C069007E440800F060FFEA
:101ED000204610BD40010020024951F82000006951
:101EE0000068704758010020024951F8200000693D
:101EF000406870475801002070B50D46044600F058
:101F000043F8204605F0A2FB0446284605F0A6FB50
:101F1000044300F03DFF204670BD0000144810B59A
:101F2000016821F00101016012480121816012491C
:101F3000016000681149884200D0FEE701F0F4F822
:101F40000F492E20087000F04AFF0E4805F0CAFB2A
:101F5000FFF70AFC07F0C4F804460021084600F029
:101F600023FD03F0FFF8FFF7DBFB204610BD000068
:101F7000002000E000300240C2A507F4CDB5E8B56E
:101F8000340100209848002070B51F4CE06820B153
:101F900000F01DFF6168884204D000F03DFF00F0B2
:101FA00016FF6060E068401CE060012825D1002534
:101FB0000AE000BF00F00BFF216901EBC5110968C1
:101FC000814205D0D1B16D1CA0688542F2DB0025AD
:101FD0002068854211D000280EDBFFF7F9FD22684A
:101FE000216901EBC212D067084A01EBC510011D3F
:101FF0001160C06FFFF7E0FD256070BD216901EB46
:10200000C5110860E4E700007401002040010020D1
:102010001CB5040004D10E480068046E002C16D0D4
:10202000FFF7B2FF2046FFF791FC00904469684635
:10203000FFF7BCFC4CB12046FFF788FC019081689B
:102040008968884701A8FFF7B1FC00F0A1FE1CBD1C
:102050004001002001490A4600F002B801F0FFFFEC
:102060002DE9F04387B015460C465FEA000846D0DC
:10207000FFF78AFF002000F06DFC814621480068D0
:10208000066E4046FFF762FC00900068806900F031
:102090002DFC074640F6FF70001904D10098B0F9F6
:1020A0000440B0F906500098611E0289ADF8044062
:1020B0001144ADF808104189681E0844ADF8065077
:1020C000ADF80A0002F03EFE6846FFF76FFC01A87B
:1020D00003F044FB06E02A462146404600F028FB78
:1020E00003F0FEFA0028F6D1384600F0FFFB304638
:1020F00000F06AF9484600F02DFC00F049FE07B0F8
:10210000BDE8F083400100202DE9FE4F984691463E
:102110008A46834600270C9EFFF736FF174818496A
:102120000068407C51F82040E1680968042903D028
:102130002468002CF8D100E014B9FFF76BFD0446C9
:102140000121E068C26A20469047050011D0246949
:10215000A0688047401C02D10A4C46F00106009658
:10216000CDE9015443464A465146584600F0C6F967
:10217000074600F00DFE3846BDE8FE8F4001002006
:102180005801002078B4000838B504001CD0FFF7CF
:10219000FBFE0E480068006EA04201D100F098FBE3
:1021A0002046FFF7D3FB0090406908B100F0D9FD4D
:1021B00000980068FFF7BEFC6846FFF7F7FB204673
:1021C000FFF71EFB00F0E4FD38BD000040010020D9
:1021D0002DE9FF4F83B0454CDDF840B098468A4664
:1021E00007002BD002A901A8FFF74AFEB7F900604B
:1021F000002E00DA0026B7F90250002D00DA002583
:102200002068A146407C01F045FD01990144491E2A
:10221000B7F9040005F047FB0446D9F80000407CFC
:1022200001F03EFD02990144491EB7F9060005F090
:102230003AFBA71B7F1C441B641C0BE02068002694
:102240003546407C01F026FD07462068407C01F0C1
:1022500027FD0446B8F1000F01D1C4F10008002F9A
:1022600001DD002C03DC002007B0BDE8F08F434601
:102270003A4629463046CDF800B0FFF745FF5FEA01
:10228000000909D000F060F88046484600F09CF84C
:102290000027DFF85CB01FE0514605988847012011
:1022A000E2E7E11B414502DA484600F071F83FB130
:1022B000EA193146484600F0B5F84846FFF7A8FE4F
:1022C000514605988847DBF8001009B1002088477F
:1022D0004846FFF7BFFE4744A742E2DB4846FFF708
:1022E00053FF002000F070F8BDE70000400100201F
:1022F0002002002038B505004FF0000411D0FFF790
:1023000043FE2846FFF722FB0090006800698068C2
:10231000804702F01FF804466846FFF747FB00F0CD
:1023200037FD204638BD38B50446FFF72DFE204660
:10233000FFF70CFB00F1180400906846FFF736FB2E
:1023400000F026FD204638BD38B504460025FFF7CD
:102350001BFE1CB908480068046E44B12046FFF714
:10236000F5FA0090B0F90A506846FFF71FFB00F03D
:102370000FFD284638BD00004001002010B503F0D5
:1023800049FE002803D0BDE8104000F07DB810BD24
:1023900038B50C46050004D10A480068056E002DCA
:1023A0000FD0FFF7F1FD2846FFF7D0FA0090B0F903
:1023B0000A10A14200DD44816846FFF7F7FA00F0F9
:1023C000E7FC38BD40010020F8B50546FFF7DCFD0D
:1023D000134E3068046E65B10CB100F079FA02F06A
:1023E000A7FD2846FFF7B2FA009031680A6E1AB1CD
:1023F00006E000F06DFA0EE0D1E90223C1E91923ED
:102400000D660068FFF798FB6846FFF7CFFA01F00A
:1024100063FE01F0F9FD00F0BBFC2046F8BD0000B2
:10242000400100207CB515460E46040004D1154835
:102430000068046E002C24D0FFF7A6FD2046FFF7AD
:1024400085FA2DB20090C58034B2848001F0DCFDA5
:102450000098406980B1FFF779FA009A0190B2F9CB
:1024600008108180B2F90A20C28011B10AB104803B
:10247000458001A8FFF79AFA6846FFF797FA00F03F
:1024800087FC7CBD4001002001490A4600F002B8EB
:1024900001F0FFFF7FB515460C4606002DD0FFF773
:1024A00073FD3046FFF752FA40F6FF7101900919AB
:1024B00003D1B0F90440B0F906500289611E1144FD
:1024C000ADF80840ADF80C104189681E0844ADF81D
:1024D0000E00ADF80A5001A8FFF768FA02A803F051
:1024E0003DF906E02A462146304600F009F903F09E
:1024F000F7F80028F6D100F04BFC7FBD2DE9FF4F27
:10250000DFF8E0B083B01C46DBF80010DDE91060B6
:10251000924600274B7C3A461299FFF7CFFA050006
:102520005DD028698068804701F014FF81460AFB6E
:1025300009F0C01D4FEAD008FFF716FAF10705D1E0
:10254000C11700EB9170801000EB4000002C06DCFE
:102550001838B0FBF8F06442A04200DC0446F007F3
:1025600007D10090DDE903012346524600F06CFBE1
:102570000746002C03DC2846FFF7DCFA2FE004FBBB
:1025800008F01830F10702D0FFF70CF901E0FFF76F
:1025900018F906001CD0FFF7D9F9019005600399DE
:1025A00081800499C180A0F808A04481C0F80C8003
:1025B000C0E9049701A8FFF7F9F91298AE60286105
:1025C000DBF80000407CA861304607B0BDE8F08F22
:1025D0002846FFF7AFFA17B13846FFF711F9002088
:1025E000F3E70000400100202DE9F74F92B090463C
:1025F0001298FFF7ABF90B90B0F908100691B0F9FB
:102600000A100D9100680069D0F804B00BA8FFF71C
:10261000CDF9384C384D2068407C55F82000C16811
:102620008A6A082190478146182801D34FF0200973
:102630002068407C55F820000069079003C80C9082
:102640002E48814201D0012000E00020109000209F
:1026500000F0FEFB002849D10026DDE91207B24652
:102660000FAB069C4546761C0193FFF75CFE0146C6
:1026700004FB0AF001EB8002234629463846CDF8D8
:1026800000B000F0C3FD050030D01098D0B1DDE9F6
:1026900006134A46284600F08DFC98B9DDE906701D
:1026A0002C46D0F810C0BCF1000F05D029460423F9
:1026B0003A460846E04705E00C992068884701C47F
:1026C0007F1EF9D10020CDE903050590012000907F
:1026D000CDE901094146034608F10108069A13981D
:1026E00001F018F90D98401E0D90B6D115B0BDE857
:1026F000F08F00004001002058010020333D000809
:10270000F8B515460E460746FFF720F90090006819
:102710001621C068426A0020904704466846FFF7C9
:1027200045F9002C03D02A4631463846A047F8BD6B
:10273000F8B515460E460746FFF708F900904469BC
:102740006846FFF733F93846FFF7D4FD03460828FB
:1027500000DD2CB12A463146384605F083FCF8BD31
:102760002A463146384605F015FEF8BD10B500285A
:1027700021D009B30AB3B1F90040B2F900309C424C
:1027800000DA23460380B1F90240B2F902309C42DC
:1027900000DA23464380B1F90440B2F904309C4288
:1027A00000DD23468380B1F90610B2F9062091427C
:1027B00000DC1146C18010BD11460A6802604968FC
:1027C000416010BD00280BD003880B440380838830
:1027D00019448180418811444180C1881144C180DD
:1027E0007047000070B50025FFF7CEFB094CD4E917
:1027F000002082420AD0D2E90056104604F044FF7D
:1028000020603146284602F0A1FD012500F0C0FA03
:10281000284670BD080200202DE9FC41154DDDE978
:1028200008742D68B5F90860864200DD3046B5F9B8
:102830000C60964200DA3246824219DBB5F90A6032
:102840008E4200DD3146B5F90E509D4200DA2B462E
:102850008B420DDB00E02C46E5682D6825B1042D88
:1028600002D02568002DF6D1CDE9007401F0B4FA4C
:10287000BDE8FC8140010020B0F90220B1F906302A
:102880009A4213DCB1F90220B0F906309A420DDC0D
:10289000B0F90020B1F904309A4207DCB1F9001018
:1028A000B0F90400814201DC01207047002070472C
:1028B0000146024878220068FDF7A0BC40010020D4
:1028C000024978220968FDF799BC00004001002008
:1028D00010B5FFF759FB01F04BFB01F0FDFB02F0D7
:1028E00031FABDE8104000F053BA000070B5094D50
:1028F00004462868467CFFF747FB022C03D2286871
:102900004474FFF7E5FF0448046000F041FA3046E4
:1029100070BD000040010020AC01002010B504464D
:10292000FFF732FB204601F045FBBDE8104000F008
:102930002FBA10B50446FFF727FB204601F072FBC3
:10294000BDE8104000F024BA0149886070470000DB
:102950003401002010B50446FFF716FB204601F0B5
:1029600073FB044600F014FA204610BD70B504460F
:10297000FFF70AFB04480068C56904B1C46100F0B0
:1029800007FA284670BD00004001002070B50546DA
:10299000FFF7FAFA03480068847E857600F0F8F9BC
:1029A000204670BD4001002070B50C460546FFF77B
:1029B000EBFA094822460580084804800848006868
:1029C000417C084850F82100C1680B6A29469847A5
:1029D000BDE8704000F0DCB97001002072010020F9
:1029E000400100205801002070B50546FFF7CCFAE1
:1029F00003480068047E057600F0CAF9204670BDE1
:102A00004001002070B50446FFF7BEFA0448006894
:102A1000B0F92C50848500F0BBF9284670BD000049
:102A20004001002070B50446FFF7AEFA0448006884
:102A3000B0F92A50448500F0ABF9284670BD00007B
:102A40004001002002480068002800D0004770477D
:102A50001402002002498A6802B98860FFF7F2BFB9
:102A60000802002010B504000ED0FFF78DFA2046B2
:102A700005F0C8F8204605F0ADFA2046FEF7C0FE86
:102A8000BDE8104000F084B910BD38B50C46050013
:102A900011D0FFF779FA2846FEF758FF0090808999
:102AA000204201D0012400E000246846FEF77EFFAA
:102AB00000F06EF900E00124204638BD38B5054627
:102AC000002028600648046844B12046FEF73EFF17
:102AD0000090006928606846FEF768FF204638BD10
:102AE0007402002038B504004FF000000D46086065
:102AF00011D02046FEF72AFF0090846844B1684652
:102B0000FEF754FF2046FEF721FF00900069286081
:102B10006846FEF74BFF204638BD00002DE9F04126
:102B2000084E04460568306801682846884707460D
:102B30003068416828468847284420603846BDE808
:102B4000F0810000440100202DE9F0410C460646CA
:102B50000025064F05E0386841683046884706443E
:102B60000544641EF7D22846BDE8F08144010020E8
:102B70002DE9F0411E46069C1746884605463A4612
:102B8000A8687F1C3346D0F804C041462846E04779
:102B9000641EF4D1BDE8F08170B5B0F90040091BA6
:102BA000B0F904408C422CDD00F11404B0F902505D
:102BB0000069521B02FB0040CA1800EBE104521EE0
:102BC000D010B0EBE10501F007034FF0FF0102F078
:102BD000070221FA03F0C2F1070201FA02F1CEB2B4
:102BE00021780FD001436D1E04F8011B002D05DD77
:102BF000FF2229462046FDF721FB2C442078304354
:102C0000207070BD30400143217070BD10B5B0F927
:102C10000030B0F90240C91A00F114030069121B18
:102C200002FB003000EBE10001F007030278802195
:102C3000D9400A43027010BDB0F906100269514331
:102C40001430FDF702BB00002DE9F843804602F185
:102C50000F000011470003FB07F01C46154689468C
:102C60001430FEF7AEFD060018D0FFF78DF93046A0
:102C7000FEF76CFE0090A0F80080A0F8029085801E
:102C8000C480074981600121818107616846FEF7A0
:102C90008DFE00F07DF83046BDE8F8830020FBE7AC
:102CA00004B5000870B5B0F90660B0F904400B68CF
:102CB00000F11405964220DD0069A34202FB00509A
:102CC00000EBE30219DAA4F101044FEAE400A0EBFF
:102CD000E30512F8010B03F0070400FA04F0C4B294
:102CE00008E055B112F8014B03F10803A5F1010505
:102CF00023F00703002CF4D008E0002070BD00BFD3
:102D00004FEA44604FEA106403F101032006F7D54F
:102D1000FF2C0AD0184605E04FEA44644FEA1464D9
:102D200000F101006606F7D400E0D81DC443640733
:102D300006D007E012F8014BFF2C0FD100F108007C
:102D40006D1EF7D5A0EB030000F101000B6070BD14
:102D50004FEA44624FEA126400F101002206F7D400
:102D6000F0E738B50546FFF70FF92846FEF7EEFD08
:102D700000908189491E0CB284816846FEF716FED8
:102D800014B92846FEF73CFD00F002F838BD0000FB
:102D90000348C168491EC16001D100F04DB87047B9
:102DA0007401002010B54FF480610348FEF720FD48
:102DB0000248FFF7C9FD10BDD043002020B4000831
:102DC00010B50446204607F0DDF810BD704710B579
:102DD00007F0ACFC10BD10B507F0AEFC10BD70479D
:102DE00010B5012007F0FCF9094908600322002111
:102DF000012007F006FA074908600846006830B16C
:102E000000231A4619460348006807F071FA10BDFE
:102E1000240100202801002010B50648006808B9E8
:102E2000FFF7DEFF4FF0FF310248006807F086FB36
:102E300010BD00002401002010B500231A461946D9
:102E40000248006807F054FA10BD00002401002079
:102E50000EB508B102AA00E00022002301A96846CD
:102E600000F052FB0EBD0000074910B5CC6818B148
:102E70000120C860801E03E00020C8606FF07F4022
:102E800000F024FD204610BD5402002010B5082A91
:102E90000EDC0346012A1AD0022A58D0042A78D020
:102EA00010F8042B03F8012B491EF9D1012010BDA5
:102EB000102A0ADC0222022AF8D1024630F8043B2A
:102EC00022F8023B491EF9D1F0E7002010BD10F8AE
:102ED000042BD207120E491E34D010F8044B491EA1
:102EE00004F0010442EA84122CD010F8044B491E6D
:102EF00004F0010442EA441224D010F8044B491EA5
:102F000004F0010442EA04121CD010F8044B491EDC
:102F100004F0010442EAC40214D010F8044B491E24
:102F200004F0010442EA84020CD010F8044B491E5C
:102F300004F0010442EA440204D010F8044B04F007
:102F40000104224303F8012B0029C0D1AEE710F899
:102F5000042B9207120E491E15D010F8044B491E7F
:102F600004F0030442EA04120DD010F8044B491E89
:102F700004F0030442EA840205D010F8044B04F084
:102F800003042243491E03F8012B0029DFD18DE7FA
:102F9000FFE710F8042B1207120E491E05D010F897
:102FA000044B04F00F042243491E03F8012B0029AF
:102FB000EFD17BE72DE9F0411E680D460446082A53
:102FC00009DC0746012A21D0022A62D0042A7CD0DB
:102FD000082A1AD195E0102A03DC02200228F8D131
:102FE00002E00020BDE8F081D3F810C02746BCF114
:102FF000000F04D00A462146022308468AE001CC8D
:10300000B04727F8020B6D1EF9D18BE001CCB04719
:10301000C0074FEA10686D1E36D001CCB04748EAB1
:10302000801000F0FF086D1E2ED001CCB04748EA9A
:10303000401000F0FF086D1E26D001CCB04748EAD2
:10304000001000F0FF086D1E1ED001CCB04748EA0A
:10305000C00000F0FF086D1E16D001CCB04748EA52
:10306000800000F0FF086D1E0ED001CCB04748EA8A
:10307000400000F0FF086D1E06D001CCB04740EACA
:10308000080000F0FF086D1E07F8018B002DBDD170
:1030900048E001CCB04780074FEA10686D1E18D099
:1030A00001CCB04748EA001000F0FF086D1E10D0B8
:1030B00001CCB04748EA800000F0FF086D1E08D040
:1030C00001CCB04740EA080000E007E000F0FF084C
:1030D0006D1E07F8018B002DDBD123E001CCB0473A
:1030E00000074FEA10686D1E06D001CCB04740EAD9
:1030F000080000F0FF086D1E07F8018B002DEDD1D0
:1031000010E0D3F810C0BCF1000F05D00A4601460C
:1031100001233846E04705E001CCB04707F8010B32
:103120006D1EF9D101205DE70A4810B581690029BB
:103130000ED101218161FFF735FE00F0DFFF054967
:1031400005481C310860BDE81040084600F080BB0F
:1031500010BD000034010020717900087CB50646DE
:1031600028480D46006868B1002002F0F7FA06E032
:103170006A462946304602F0F7FF02F0B1FA00280D
:10318000F6D17CBD106800901F4C506801902268F9
:10319000BDF8000032F84C1F0844ADF80000BDF83F
:1031A000020091880844ADF80200BDF804001188BF
:1031B0000844ADF80400BDF8060091880844ADF855
:1031C0000600684602F0CAFA0EE000BF2068BDF8AB
:1031D00000106A464184BDF80210818429463046B9
:1031E00002F0C2FF02F07CFA0028EFD1206830F82C
:1031F000221F428D891A01804188C28D891A41801F
:103200007CBD00006C010020400100202DE9FF4F33
:1032100000208BB004460146009019981D461646C2
:10322000016007AB002203A902A800F06DF918B1F4
:1032300000200FB0BDE8F08F0798854200DD0546FD
:103240005C4F0A955C493868407C51F82010049125
:1032500009690691FEF7D6FD05903868407CFEF7B7
:1032600043FE56498146884204D05549894501D0DC
:10327000012000E00020099001CE1899884782467D
:103280005FEA106B71D0009870BB0B9800EB0408DC
:1032900048480068B0F90800404503DDA0EB080786
:1032A000804600E000270299049801EB840101EBBD
:1032B0008701CDE90010DDE90A010A180C9B08928C
:1032C000521E19464046FFF7A7FA012000900598C4
:1032D00018280ADA0298DDE9052300EB840000EBE8
:1032E0008700E91B00F070F810E0099870B10298AF
:1032F00000EB840000EB87070898A0EB080849461C
:103300003868884701C7B8F10108F8D12D48C0696D
:1033100060B3DDE9020700EB840007EB8402CDE92E
:103320000202284C361F2B46E46930460299A0471A
:10333000FF203168B0EB116F02D10299096804E0F7
:10334000029A1268B0EB126F01D1039A11600299D0
:10335000361D091D02910399091D03916D1EE8D1C7
:1033600019990120039708601DE01EE0FFE7BBF1FB
:10337000FF0F0ED00298CBF1FF0250F824105046F8
:1033800000F00EFA039941F8240019990120086011
:1033900005E00298039950F8240041F82400641CC9
:1033A0006D1E7FF469AF039843E7039941F824A0A9
:1033B000EBE700004001002058010020333D0008E9
:1033C000313D00082C0200202DE9F05F0C1E16DDB7
:1033D0005E68014600EB8405082A12DC611E012AA2
:1033E00028D0022A48D0042A6AD0082A07D107190F
:1033F00017F8010DB04745F8040D641EF8D1BDE87B
:10340000F09F102AFBDC0222022AF8D15F693FB14B
:103410002246BC46BDE8F04F02235DF804EB60474E
:1034200001EB440737F8020DB04745F8040D641E60
:10343000F8D1E4E700EBE1002D1F10F801A9814667
:1034400001F00707802020FA07F800BF0AEA080009
:10345000C7F10701C840B04745F804093FB17F1ED6
:103460004FEA4860000E8046641EEFD1C7E7072789
:1034700019F801A90120F6E700EBA1002D1F01F0CA
:10348000030710F801A981467900C02020FA01F84D
:103490004FF0060B0AEA0800ABEB4701C840B04703
:1034A00045F804093FB17F1E4FEA8860000E804650
:1034B000641EEFD1A3E7032719F801A93846F6E700
:1034C00000EB610001272D1FA74310F801A98146D9
:1034D000B900F02020FA01F84FF0040B0AEA0800C6
:1034E000ABEB8701C840B04745F804093FB17F1EE8
:1034F0004FEA0870000E8046641EEFD17FE7012777
:1035000019F801A90F20F6E72DE9F047204C0646EF
:103510001F46A06990468946002540B90120A06158
:1035200004F120011B480860084600F091F9606929
:1035300010B900F0B2FB606107B138604EB1A0680D
:1035400030B960698000FEF785F9A06000B90125F7
:103550003060B9F1000F0AD0E06830B960698000CE
:10356000FEF778F9E06000B90125C9F80000B8F16C
:10357000000F0AD0206930B960698000FEF76AF94F
:10358000206100B90125C8F800002846BDE8F08791
:103590002C020020F979000873B5124A01A900989D
:1035A0001268904700240090C8B10F4900250968AF
:1035B000C969496959B10A684AB1019990477CBD06
:1035C0006846FFF7ABFA0546FEF726FC044401986F
:1035D000401E0190F4D5284600F032F804442046FD
:1035E0007CBD0000040200204001002073B50D46A0
:1035F0000098002490B10A490968C969496959B11C
:103600004A684AB1294690477CBD6846FFF786FA6A
:1036100020B10A2802D0641CAC42F6DB20467CBDF7
:1036200040010020044AB2F9002002600348B0F9CA
:103630000000086070470000700100207201002047
:1036400038B5002469460094FEF7F8FB00998142E2
:1036500000DD0C1A204638BDB0F90030B1F9002069
:10366000934200DA0280B0F90230B1F902209342AD
:1036700000DA4280B0F90430B1F90420934200DD51
:103680008280B0F90620B1F906108A4200DDC180BF
:10369000704770B5B1F90040B2F900309C4200DDCE
:1036A00023460380B1F90250B2F90240A54200DD81
:1036B0002C464480B1F90460B2F90450AE4200DAFD
:1036C00035468580B1F90610B2F90620914200DB3B
:1036D0001146C1809D4201DBA14201DA002070BD8C
:1036E000012070BD014602480068407C00F002B82D
:1036F00040010020F8B501260F46054602284BDAA6
:10370000264C5FB3012F02D0022F45D116E054F8AA
:10371000250088B92846FEF77DFA0090B8B3C06846
:103720000D21426A68469047020035D0394600981C
:10373000904754F825000026401C2BE0FEF76AFA5B
:10374000009020B3C0680D21426A6846904702008D
:1037500022D039460098904700261DE054F82500F5
:1037600001280FD12846FEF755FA009050B1C068E5
:103770000D21426A68469047020003D039460098FE
:103780009047002654F8250010B1012101E003E024
:103790000021401A44F825003046F8BDFC01002005
:1037A00070B5FF23B3EB116F29D0C3B200F47F458E
:1037B00000F47F04060E5343554354435643C2F16D
:1037C000FF00CAB202FB003201F47F4303FB005347
:1037D00001F47F0505FB0044090E01FB0065C2F3FF
:1037E00007204FF47F4101EA1322090201EA142164
:1037F0004FF07F43104303EA05430843184370BD6D
:103800002DE9F04F1546DDE90CB90C4606464FF0A0
:10381000000818E00B9F4FF0FF0A01CE08CCAAEB7E
:10382000106202FB09F2B2FBFAF1CAB21946FFF7C5
:10383000B7FF20F07F4001C57F1EEED1099808F147
:10384000010804EB8004D845E4D3BDE8F08F000004
:1038500002494A6942604861704700003401002013
:1038600010B502E000F8011B521E0AB18307F9D11E
:10387000930818D001EB014402F0030204EB042486
:1038800005E0046044608460C46010301B1F042B9A
:10389000F7DA01E010C05B1E002BFBD103E000BF94
:1038A00000F8011B521E002AFAD110BD02A004F03C
:1038B0004FFF00BFFEE70000486172644661756C0F
:1038C000745F48616E646C65720D0A0002490A6893
:1038D0000860104670470000880200200449054A2D
:1038E0000968497C52F821100969096808470000F5
:1038F0004001002058010020C2B2C0F30721C0F3EC
:1039000007401144084400F27F1040F2FD2190FB73
:10391000F1F070472DE9F04F05468DB07C48DDF899
:1039200060901A9C00681E4617464FF0000A78B156
:103930001B9B199ACDF808900593CDE90324DDE986
:103940001623CDE90023046833463A46284682E030
:10395000DDE9160201EB060805EB070C1043A8F1A0
:103960000108ACF1010C012806D0C9F1080005904E
:10397000002002910890C8E066480268B2F90A3057
:10398000581A002806DD361A002E65DD1946199BE7
:1039900000FB0344B2F90E00A8EB0000002802DD92
:1039A000361A002E58DDB2F90C00ACEB00000028EE
:1039B00000DD3F1AB2F908300020AB4237DD581B5A
:1039C0003F1A4B46B9F1080F28D007DC012B0DD068
:1039D000022B13D0B9F1040F29D117E0102B1FD0FF
:1039E000182B20D0B9F1200F21D11CE020F00703C3
:1039F00004EBE0041D4400F0070018E020F003038E
:103A000004EBA0041D4400F0030010E020F00103CB
:103A100004EB60041D4400F0010008E0044404E0ED
:103A200004EB400401E004EB800405440020002F77
:103A300012DD1B9BDDF864C0CDE90403CDE902C4AF
:103A4000CDE90069527C34483B4650F82200C268F8
:103A500054680A462946A0470DB0BDE8F08F179973
:103A60000298084409902B49401E00900A68B2F958
:103A70000A30834241DCB2F90E10029881423CDBED
:103A80004FF0000BD84603950B9434E0BBF1000FC8
:103A900005D10B984FF0080B10F801AB0B9005996E
:103AA000ABEB090B3AFA01F00AFA09F101F0FF0A4F
:103AB00004D118490968097C890716D41549096891
:103AC000C96B0A680C921B9A0AB152F82000086070
:103AD00016990398009B4218521E029900F07EF836
:103AE0000C490C980968C96B08600399169808F18D
:103AF000010808440390B845C8DB0898401C0890AA
:103B000009980290199804440898B042A7DBA3E7EB
:103B10006C0100204001002058010020F0B40C4648
:103B200012490968B1F90A30A3421CDCB1F90E3020
:103B3000A34218DBB1F90830834200DD1846B1F921
:103B40000C30934200DA1A4682420CDB4B7C084967
:103B500051F8235013462246E9688E6801462846EC
:103B6000B446F0BC6047F0BC704700004001002044
:103B7000580100200A46174930B40968B1F90A30E3
:103B8000934225DCB1F90E30934221DBB1F90830C4
:103B900083421DDCB1F90C30834219DB0B7C0E4CE7
:103BA000DB0709D0497C54F82130D968CC6901463B
:103BB000A44630BC18466047CB6B497C1B6854F860
:103BC0002140E1688D6901462046AC4630BC604723
:103BD00030BC7047400100205801002038B5134C1C
:103BE0002468B4F90850854200DD2846B4F90C5029
:103BF000954200DA2A46824217DBB4F90A508D4218
:103C000000DD2946B4F90E509D4200DA2B468B4266
:103C10000BDB0093647C064B53F82440E3681D697A
:103C200013460A4601462046A84738BD40010020F9
:103C300058010020082103F079BC00000248092146
:103C40000068407C03F072BC40010020092103F0B1
:103C50006DBC70B500252C462046FDF7DBFF00B19A
:103C60006D1C641C022CF7DB284670BD02480068FE
:103C7000407C00F003B800004001002010B5FDF7C3
:103C8000C9FF002805D0C168CA6ABDE810400221FA
:103C9000104710BD032103F049BC032003F089BC89
:103CA000042103F043BC0000024801210068407C6D
:103CB00003F03CBC40010020024802210068407C27
:103CC00003F034BC40010020AFF300802DE9F04147
:103CD000002809D0876837B10D4E716819B10468A2
:103CE000B4F5807F02DD0020BDE8F08130688442B9
:103CF00000DD0446002507E057F82500FFF7EEFD3C
:103D0000716841F825006D1CA542F5DB7068EBE792
:103D1000940100200449054A0968497C52F82110A1
:103D20000969496808470000400100205801002047
:103D30007047704710B50A4C606860B92068800011
:103D4000FDF788FD606040B104F108010548086096
:103D50000846FFF77DFD002010BD012010BD0000CA
:103D600094010020B17900082DE9F041FFF771FFBF
:103D70000746002528E02846FDF74CFF18B32846E3
:103D8000FEF7B4FD80462846FFF754FF082817DCED
:103D90000F48104950F825000069884210D0284685
:103DA000FFF754FF0646002408E0E0B2FFF7B2FF39
:103DB0000246E1B2284600F04DF9641CB442F4DB3F
:103DC0004046FEF793FD6D1CBD42D4DBBDE8F0819B
:103DD0005801002060B400082DE9FF4F83B016465B
:103DE000DDE910408B46C0684769426A7AB101211B
:103DF00011A8904705000AD00698CDE90004334683
:103E00005A4603991198A84707B0BDE8F08F574864
:103E10000068407CFDF7F6FF8246082801DC01209F
:103E200005E0BAF1100F01DC022000E0042080461A
:103E3000002596E04046B8F1010F05D0022871D068
:103E4000B8F1040F25D17CE0BAF1090F21D2DFE8E7
:103E50000AF08605213F3F5959595900039815E04A
:103E600001465A461198B847C5F1070188404FF6F8
:103E70007F722178EA40114001436D1C217004EBF0
:103E8000E50425F00700054109F101008146B04233
:103E9000E6DD64E0039817E001465A461198B847FA
:103EA0000621A1EB450188406B004FF63F72217857
:103EB000DA40114001436D1C217004EBA50425F08C
:103EC0000300054109F101008146B042E4DD46E00E
:103ED000039813E001465A461198B8470421A1EB14
:103EE000850188402178AB000F229A4011400143A0
:103EF00021702C4485F0010509F101008146B04292
:103F0000E8DD2CE0DDF80C9007E001465A461198F8
:103F1000B847207009F1010944444846B145F4DD31
:103F20001DE0FFE7DDF80C9007E001465A461198C6
:103F3000B847208009F1010944444846B145F4DD01
:103F40000DE0DDF80C9007E001465A461198B8479D
:103F5000206009F1010944444846B145F4DD0BF104
:103F6000010B06998B457FF765AF4DE740010020B7
:103F700010B50E4C0E492068407C51F8200050B11D
:103F8000C1680968042903D000680028F8D102E05C
:103F900008B1FDF71AFE20680021016600F1080152
:103FA0004161BDE8104000F02FB800004001002042
:103FB000580100200149096849680847900100201C
:103FC000044909680A7C520701D5C96B00E0896B76
:103FD00008607047400100207CB5094C0546206808
:103FE000417C084850F82100C1680A6B6946904737
:103FF00020686A4629460830FFF74BFB7CBD00006D
:1040000040010020580100200448016804484A7C0F
:10401000083150F82200C268126B1047400100209E
:1040200058010020014909680968084790010020EB
:10403000044909680A7C520701D5896B00E0C96B05
:1040400008607047400100200149096889680847F5
:1040500090010020F8B515460E460124FDF7DAFD63
:10406000009058B1C0681021426A6846904703002A
:1040700004D02A4631460098984700242046F8BDCF
:10408000F8B515460E460124FDF7C4FD009058B161
:10409000C0680B21426A68469047030004D02A4654
:1040A00031460098984700242046F8BDF8B51546DB
:1040B0000E460124FDF7AEFD009058B1C0680A21FC
:1040C000426A68469047030004D02A463146009869
:1040D000984700242046F8BD10B5074C2068006BB7
:1040E000FFF7FCFBFFF7A4FF2068406BFFF7F6FB30
:1040F000BDE81040FFF764BF4001002010B5002369
:104100001A4607490748FDF701FD4022802100209B
:10411000FFF7B6FF402280210020FFF7C7FF10BD48
:1041200014AD0008D0AC000810B5034614460129B0
:1041300001D1002010BD4FF0FF3200BF00BF10467C
:10414000F8E700002DE9FF4F8DB01746674ADDF80C
:1041500070901E9E209812681D4600248AB11D9BF7
:104160001F98CDE90293CDE90460DDE91A03CDE99A
:10417000000314682B463A460D98A04711B0BDE8DD
:10418000F08F0D9A01EB050802EB070CDDE91A230D
:104190001A43A8F10108ACF1010C012A06D0C9F1BB
:1041A00008004FF0000B029105909CE0504A126805
:1041B000B2F90A40631A002B06DDED1A002DDDDD91
:1041C00021461D9C03FB0466B2F90E30A8EB0303E5
:1041D000002B02DDED1A002DD0DDB2F90C30ACEB76
:1041E0000303002B00DDFF1A0D9B1C1AB2F90830E7
:1041F000A3420DDDA3EB040C0CEB0003181A20F016
:1042000007000444A7EB0C0706EBE30603F00700E6
:10421000002FB3DD1F9BDDF874C0CDE904030396C6
:104220008DE82012527C33483B4650F82200C26889
:1042300055680A462146A847A0E71B9902980844FA
:1042400009902B49401E03900A68B2F90A30834254
:1042500043DCB2F90E10029881423EDB4FF0000AB7
:104260000D980B96D046009035E000BFBAF1000FD4
:1042700005D10B984FF0080A10F8014B0B900599E7
:10428000AAEB090A34FA01F004FA09F4E4B204D101
:1042900017490968097C890717D415490968C96B4A
:1042A0000A680C921F9A0AB152F82000086000991F
:1042B0001A980A180846DDE90213521EFFF78EFC11
:1042C0000B490C980968C96B086000991A9808F1A5
:1042D000010808440090B845C8DB099802901D9871
:1042E0000BF1010B0644AB45A7DB47E76C0100204F
:1042F0004001002058010020002818D0410817D0A4
:10430000810817D0C10817D0010917D0410917D06B
:10431000010A17D0410A17D0010B15D0C10B13D0D9
:10432000010C11D0810C11D0000E11D0202070474B
:104330000120704702207047032070470420704717
:1043400005207047082070471020704712207047E2
:104350001820704700B50022FFF7CEFF012804D0D7
:10436000811E062903D808220BE0012209E0A0F1F2
:104370000901072901D8102203E011380F2800D8BD
:104380002022104600BDF8B504460D4616461F46CD
:1043900014B94FF0FF30F8BD256066600120A072AF
:1043A0000020607210208DF8030003208DF80200B9
:1043B000A08880B2ADF8000069462068FDF752F889
:1043C000204600F002F80020E5E710B504460CB1E5
:1043D000A07A10B94FF0FF3010BD207A08B9012043
:1043E00000E00020012805D1A28891B22068FDF7E5
:1043F000CFF804E0A28891B22068FDF7C7F800204A
:10440000607200BFE8E710B504460CB1A07A10B99D
:104410004FF0FF3010BD207A012805D1A28891B25B
:104420002068FDF7B5F804E0A28891B22068FDF796
:10443000ADF8012060720020ECE7000010B50446E2
:104440000121094800F01CFB00BF07482430008808
:10445000A042FAD3002004492431088000210248F8
:1044600000F00EFB10BD00000004004000BFFEE79E
:104470007047000002490143024A11607047000082
:104480000000FA050CED00E0024600210BE00020E0
:1044900005E0064B03EBC0035A54431CD8B28028F6
:1044A000F7DB4B1CD9B20829F1DB70471C07002051
:1044B00000BF011EA0F10100FBD17047F0B514460A
:1044C00000267F2801DC3F2900DDF0BD0B46CF1719
:1044D00001EB5777FF10C7F10707FAB2CF1701EBCF
:1044E0005777FF10A1EBC707FDB2C5F107070123FE
:1044F000BB40DEB24CB10A4B03EBC0039B5C3343C1
:10450000074F07EBC007BB5408E0054B03EBC003A4
:104510009B5CB343024F07EBC007BB5400BFD4E71B
:104520001C07002008B501210C2000F0F9F910202B
:104530008DF8030003208DF802000120ADF8000083
:1045400069461E48FCF78EFF10208DF803000320FB
:104550008DF802008020ADF8000069461848FCF78D
:1045600081FF10208DF8030003208DF80200402009
:10457000ADF8000069461248FCF774FF10208DF872
:10458000030003208DF802002020ADF800006946EA
:104590000B48FCF767FF10208DF8030003208DF80F
:1045A00002001020ADF8000069460548FCF75AFFEC
:1045B00010210348FCF7EAFF08BD0000000C014091
:1045C0000008014010B5FFF7ADFF40210B48FCF794
:1045D000DDFF42F21070FFF76BFF40210748FCF748
:1045E000D7FF00F02FF80020FFF74EFF00F008F88B
:1045F0000021084600F079F810BD000000080140D5
:1046000070B5002418E004F1B001C8B200F082F8DF
:10461000012000F07FF8102000F07CF8002507E072
:10462000074901EBC501085D00F0A0F8681CC5B2A0
:10463000802DF5DB601CC4B2082CE4DB70BD0000EB
:104640001C07002010B5AE2000F064F8002000F038
:1046500061F8102000F05EF8402000F05BF8812047
:1046600000F058F8CF2000F055F8A12000F052F8E3
:10467000C82000F04FF8A62000F04CF8A82000F069
:1046800049F83F2000F046F8D32000F043F800201E
:1046900000F040F8D52000F03DF8802000F03AF816
:1046A000D92000F037F8F12000F034F8DA2000F0DB
:1046B00031F8122000F02EF8402000F02BF82020D6
:1046C00000F028F8022000F025F88D2000F022F8F4
:1046D000142000F01FF8A42000F01CF8A62000F021
:1046E00019F8AF2000F016F810BD70B504460D465D
:1046F00005F1B001C8B200F00DF8102141EA141024
:1047000000F008F804F00F0141F0010000F002F899
:1047100070BD000070B50446082520211148FCF743
:1047200035FF01211048FCF731FF17E004F080004D
:1047300020B180210B48FCF72BFF03E080210948C2
:10474000FCF724FF01210848FCF722FF012106485D
:10475000FCF71CFF6006040E681EC5B2002DE5D1F3
:1047600070BD000000080140000C014070B5044617
:10477000082520211148FCF70BFF01211048FCF708
:1047800005FF17E004F0800020B180210B48FCF702
:10479000FFFE03E080210948FCF7F8FE01210848EC
:1047A000FCF7F6FE01210648FCF7F0FE6006040E59
:1047B000681EC5B2002DE5D170BD000000080140A3
:1047C000000C01402DE9F04704460F4690469946FB
:1047D0001CB94FF0FF30BDE8F087002540F6180007
:1047E00005F040F806460EB9A81EF4E72660012041
:1047F0002071A760C4F80C80C4F810904FF4E13227
:104800000B492068FCF712FC0546294609A003F075
:104810009FFF002D01DA2846DDE72068FCF77CFACF
:104820000546002D01DA2846D5E70020D3E7000031
:1048300000440040455350383236365F496E697443
:104840003A202025640D0A002DE9F84304460E465F
:10485000154614B12079012803D04FF0FF30BDE890
:10486000F883002705F1320004F0FCFF804605F1D3
:1048700032014046FBF7E9FC0CA314A2164940465E
:10488000009603F075FF414614A003F061FF404617
:10489000FBF7F8FC81464A4641462068FCF7B1FD2B
:1048A0000746404605F036FB3846D8E738723D39B2
:1048B00050453254343D6568553D664E634A713704
:1048C000543968744E59513D000000003131363280
:1048D0003136353031370000B8B600082573000096
:1048E00029B1064A52690243044B5A6104E0034A63
:1048F00052698243014B5A61704700000010024028
:1049000029B1064AD2690243044BDA6104E0034A42
:10491000D2698243014BDA61704700000010024007
:1049200029B1064A92690243044B9A6104E0034AA2
:1049300092698243014B9A61704700000010024067
:1049400030B500210022002400232D4D6D6805F0B4
:104950000C0121B1042905D0082923D105E0294DF6
:10496000056022E0274D05601FE0254D6D6805F4C8
:104970007012234D6D6805F48034022505EB9242D8
:104980001CB9214D554305600BE01D4D6D6805F4C4
:1049900000351DB11C4D5543056002E0194D5543CE
:1049A000056002E0174D056000BF00BF144D6D6843
:1049B00005F0F0010909154D6B5C0568DD404560A7
:1049C0000F4D6D6805F4E061090A104D6B5C456898
:1049D000DD4085600A4D6D6805F46051C90A0B4DD4
:1049E0006B5C4568DD40C560054D6D6805F4404170
:1049F000890B074D6B5CC568B5FBF3F5056130BDF0
:104A00000010024000127A0000093D00B0000020B2
:104A1000C000002010B500BFBF2080F31188BFF395
:104A20004F8FBFF36F8F00BF05F08CFE18B14FF0B2
:104A300080500449086000BF002080F3118800BF47
:104A400010BD000004ED00E03EB505460C46012116
:104A50000220FFF755FFADF80450ADF800400020EC
:104A6000ADF80600ADF802006946044800F014F8FD
:104A70000021024800F004F83EBD000000040040A0
:104A800021B1028842F00102028004E002884FF660
:104A9000FE731A4002807047002202881D4B984224
:104AA0000ED01D4B98420BD0B0F1804F08D01B4B5D
:104AB000984205D01A4B984202D01A4B984204D122
:104AC0004FF68F731A404B881A43174B984207D002
:104AD000164B984204D04FF6FF431A40CB881A4336
:104AE00002808B8883850B8803850A4B98420BD004
:104AF000094B984208D00E4B984205D00D4B984276
:104B000002D00D4B984201D10B7A03860123838298
:104B100070470000002C01400034014000040040B8
:104B200000080040000C004000100040001400404D
:104B300000400140004401400048014010B540F2EF
:104B40002551094800F036F868B1074800F0EEF842
:104B5000C4B206480068C06828B1044908680968FA
:104B6000CA682146904710BD00440040E40600207A
:104B700001F40072B2F5007F00D100BFCA43028089
:104B8000704721B1828942F40052828104E0828917
:104B90004DF6FF731A408281704702460020B1F53E
:104BA000007F00D100BF13880B400BB1012000E053
:104BB0000020704770B50246002400230025002025
:104BC00040F66A16B14200D100BFC1F3421501F0B0
:104BD0001F03012606FA03F3012D02D19689334003
:104BE00006E0022D02D1168A334001E0968A334056
:104BF0000C12012606FA04F41688344013B10CB1E5
:104C0000012000E0002070BDF0B50346002400261E
:104C10000025002040F66A17B94200D100BF1846AF
:104C2000C1F3421401F01F06012707FA06F5012C13
:104C300001D10C3004E0022C01D1103000E014301E
:104C40001AB107682F43076002E00768AF430760A7
:104C5000F0BD00002DE9F04786B005460E46002461
:104C6000A24600BFA1460027B08900B100BF2F4671
:104C70002C8A4CF6FF700440F08804432C82AC89E7
:104C80004EF6F3100440B088318908437189084317
:104C90000443AC81AC8A4FF6FF400440B089044322
:104CA000AC8201A8FFF74CFE1F48874202D1DDF815
:104CB00010A001E0DDF80CA0A88900F4004040B18C
:104CC0000AEBCA0000EB0A1031684900B0FBF1F8AA
:104CD00007E00AEBCA0000EB0A1031688900B0FB5C
:104CE000F1F86420B8FBF0F004012009642101FB15
:104CF0001089A88900F4004040B1322000EBC900BF
:104D0000B0FBF1F000F00700044308E0322000EBB4
:104D100009106421B0FBF1F000F00F0004432C8176
:104D200006B0BDE8F08700000038014001468888E1
:104D3000C0F308007047C1F308028280704700BFCB
:104D4000FEE7000002490120096881F8540070471D
:104D5000400100202DE9F0418AB00446FDF714F926
:104D6000BCB32046FCF7F2FD0190D0E90012CDE97A
:104D70000412876A056A01A8FCF718FE204600F0B5
:104D8000CFFC060025D0204600F0DFF98046B807AA
:104D900004D52A46414604A800F020FE2046FCF730
:104DA000D5FD01904046FCF7D1FD06903046FCF75A
:104DB000CDFD039005620698019AC1691162C46134
:104DC00001A8FCF7F3FD06A8FCF7F0FD03A8FCF72B
:104DD000EDFDFDF7DDFF0AB0BDE8F0812DE9FC5FD8
:104DE0009846DDE90C5491460E460746DDF83CB086
:104DF000FDF7CAF8DFF82CA1DAF8140004434DB926
:104E0000BAF8020048B348480AF138010068407C0B
:104E100051F82050681C0ED0FDB12846FCF796FDD5
:104E20000190B0F90010B0F902200F441644B9F116
:104E3000000F02D006E000250FE0B0F90430591A47
:104E400001F10109B8F1000F04D1B0F90600801A90
:104E500000F1010801A8FCF7A9FD0BF12C00FCF7FB
:104E6000B0FC5FEA000B57D0BAF80200401CAAF869
:104E700002005846FCF76AFD0090078007EB090125
:104E80004680491E818006EB0801491EC1800E99AB
:104E90000161264A816A2240114381626846FCF71B
:104EA00085FDDAF80C005E4650B1FCF797FD074629
:104EB0003046FCF793FD0146786948617E6101E068
:104EC000CAF80CB02946584600F0C0FCA00602D52E
:104ED000584600F0D7FAE00705D0DAF8201001F1C3
:104EE0000101CAF82010600602D55846FFF732FFCC
:104EF000A0070DD55846FCF729FD0090816A41F0C6
:104F0000020181626846FCF751FD584600F0D4F971
:104F10000121584600F01BFFFDF73AFF5846BDE857
:104F2000FC9F0000A4010020400100209F3F0700DB
:104F3000064910B50968002081F85400FDF724F8EF
:104F4000FFF762F8BDE81040FDF722BF40010020E6
:104F500010B50446C168D4E90020172A0DD004DC3E
:104F60000E2A0CD0142A07D104E0222A0CD0282AB9
:104F700002D10CE000F08EFB0020E06010BD214665
:104F8000BDE8104000F0ADBA6FF07040F5E7BDE845
:104F9000104000F091B938B5040010D0FCF7F4FFD0
:104FA0002046FCF7D3FC00900068FDF75BFD6846E7
:104FB000FCF7FCFC2046FCF723FCFDF7E9FE38BDBE
:104FC000F8B5050061D0FCF7DFFF284600F00AFDC8
:104FD000002858D0284600F0B5FB06460B2128468D
:104FE00000F0B5FE284600F018FB2846FCF7AEFCA2
:104FF0000090406A08B1FDF7C7F8244C002104F185
:105000005002A162A06852F82030AB4201D142F8B0
:1050100020101E4A483252F82030AB4201D142F8EB
:105020002010206904E04368AB4200D14160006871
:105030000028F8D10721284600F07FF9009801F0F8
:1050400079F8284600F012FB284600F00DFE009883
:10505000806AC10703D0216AA1F1010121628006A3
:1050600002D5A088401EA0806846FCF79FFC60889F
:10507000401E60802846FCF7C3FB0448383050F8D7
:10508000260000F0FFF9FDF783FEF8BDA401002023
:105090002DE9F0410025FCF777FF00E0012501F044
:1050A000A9FF0028FAD11A4E1A4C306890F8540023
:1050B00038B1A08828B1E069012720B10068804795
:1050C00004E0002702E00120FEF70CFBFDF760FE84
:1050D000306890F8540058B1A08848B1FCF754FFEC
:1050E00001F0A8FEFDF754FEA08808B10125EFE706
:1050F000FCF74AFF3FB1E06910B14068804702E029
:105100000020FEF7EFFAFDF743FE2846BDE8F081E8
:1051100040010020A4010020034804490068407CAD
:1051200051F820007047000040010020DC01002001
:1051300010B5040007D0FCF727FF2046FCF74EFC13
:10514000C469FDF725FE204610BD10B5040007D048
:10515000FCF71AFF2046FCF741FC8469FDF718FEB6
:10516000204610BD2DE9FF5F2C4D6878002853D1F3
:1051700000272B48EF60AF620068DFF8A8903C463C
:105180004764AF806F804FF0020A4FF0FF3B40F65C
:10519000FF7805F138062046FCF73CFD98B1CDE9D3
:1051A0000297CDE900BA0021424643460846FFF780
:1051B00015FE1A4A46F8240040326FF0704142F85A
:1051C000241000F079F8641C022CE4DB164FDFF8A1
:1051D0005C80DFF85C90002407EBC40000F0E6F987
:1051E00008EBC40000F0E2F909EBC40000F0DEF9BE
:1051F000641C022CF0DB306800F044F9FFF7A2FDDC
:1052000001200649687030310A48086004B0084639
:10521000BDE8F05FFEF71CBBBDE8FF9FA4010020C6
:10522000400100209190000898490020A8490020E2
:10523000B8490020C579000870B586B00D46060053
:1052400031D0FCF7A1FE3046FCF780FB0090846A69
:10525000A10723D5D0E90010CDE90110E00302D564
:10526000304600F048FB5DB1286803906868049000
:1052700003A9009800F0A2F903A901A8FEF7ECF930
:10528000314601A800F0A2F940B140F60100044007
:10529000012C0AD001A9304600F02AFB6846FCF731
:1052A00085FBFDF775FD06B070BD0098026A816947
:1052B00001A800F093FBF1E70021FFF7BDBFFEB5A9
:1052C00015460E4604001CD0FCF740FB0246009039
:1052D00090F82800800711D5314601A8FEF7D9F9CA
:1052E00060B16846FCF762FB2A4601A9204602F03D
:1052F00099FA2046FFF71CFF04460CE06846FCF7CD
:1053000055FBFEBD2A4601A92046FFF7D8FF2046DF
:10531000FCF764FB046A002CF4D1FEBD70B51446A2
:105320000D460646FCF730FE22462946304600F080
:105330006BFBBDE87040FDF72BBD1FB52622039126
:105340000092694600F0CDF81FBD000070B586B030
:105350000D4606460024FCF717FE0B49094809686C
:1053600050F8210048B10E210595009104A9CDE91E
:105370000316694600F0BAFC0124FDF709FD06B0EA
:10538000204670BDF4010020AC01002070B5154628
:1053900006468AB00C4651EA050070D0002E6ED049
:1053A000FCF7F2FD3046FCF7D1FA0590D0E9001287
:1053B000CDE90212CDE9061284B1816A0A0608D548
:1053C000890506D4BDF81810A1EB0401ADF818103A
:1053D00004E0BDF81C102144ADF81C1085B1816AB1
:1053E000CA0508D5490506D4BDF81A10A1EB050178
:1053F000ADF81A1004E0BDF81E102944ADF81E10D7
:10540000806AC00302D5304600F075FA05AB07CBC1
:10541000C0E9001290F8280080070AD506AA02A960
:1054200008A8FDF7A3F90598026A816908A800F0A9
:10543000D5FABDF91E00BDF90E10401A0090BDF955
:105440001C00BDF90C10431ABDF91A00BDF90A1071
:10545000421ABDF91800BDF90810411A059800F06C
:105460007DFC059901F10800FEF7F6F805213046AC
:1054700000F06DFC05A8FCF799FAFDF789FC0AB06D
:1054800070BD000070B50446FCF77EFD0C4D286829
:10549000866C0CB90B49CC688464204600F01CFC77
:1054A000FEF7B2FD2046FCF799FA2968B0F9002012
:1054B000CA64B0F902000865FDF76AFC304670BDA9
:1054C00040010020A401002070B50C460546FCF701
:1054D0005BFD2146284600F027FCBDE87040FDF743
:1054E00057BC70B50C0005460DD0FCF74DFD2846A5
:1054F000FFF72BFE18B12146A56000F0F7FBBDE8D1
:105500007040FDF745BC70BD10B5FBF78BFF02493D
:1055100000200968486410BD40010020F8B5164617
:105520000C4605001DD0FCF72FFD2846FCF70EFAAF
:105530000090B0F90410B0F90020891A641AB0F98B
:105540000610B0F90200641E081A361A761E684664
:10555000FCF72CFA324621462846FFF717FFFDF7E5
:1055600017FCF8BD0EB50E48006890F8541009B14C
:105570000C4811E0806CFCF7E9F90090D0E90010CC
:10558000CDE901106846FCF711FA0748416A11B1EC
:1055900001A800F01BF801A802F0C2FB0EBD00003C
:1055A0004001002018490020A401002002490A6897
:1055B0000260086070470000B40100200B46B0F99B
:1055C0000220B0F900101846FDF7FCB838B50C46BB
:1055D00005462046FCF7BAF90146009090F82800ED
:1055E000800703D46846FCF7E1F912E02846FEF78D
:1055F00033F80098806920B104466846FCF7D6F974
:10560000E7E76846FCF7D2F9204600F09DFD002848
:1056100001DA002038BD012038BDF8B50546FCF799
:10562000B3FC6846FDF74AFA1AE001212046FDF76F
:105630002CFA009981B178B10846FCF7CFF940689F
:10564000A84209D169462046009EFDF74BFA044660
:105650003046FFF7A0FC04E069462046FDF742FA19
:105660000446002CE1D1FDF793FBF8BD38B50446A4
:10567000FCF76CF90090816941B1026A00F0AEF963
:10568000204600F009FB0099002088616846FCF77D
:105690008DF938BD38B50C4600280AD0002C08D04A
:1056A000FCF754F92146009000F004F86846FCF736
:1056B0007DF938BD00224A800A8082880388D21A88
:1056C0008A80C2884088101AC880704710B5FFF7DA
:1056D0003CFD002802D0FCF781F9C06910BD000034
:1056E0000D4810B5006890F85400002806D00B4C07
:1056F0006069012803DD401E6061002010BD206943
:10570000401C206101F03AFD18B1FFF72BFF01208A
:1057100010BD6069EFE70000400100201049002043
:1057200070B50546FFF7D2FF08E0AC4201D1002476
:1057300006E0FCF753F9006AA84201D00400F4D156
:10574000204670BD10B50446FCF748F98069002872
:10575000F9D12046BDE8104000F0F6BCF0B5384E57
:10576000074687B0306890F8541041B1354C6169F4
:10577000491C6161012905DD012007B0F0BDFFF77B
:10578000F1FEF9E7806CFCF7E1F82F4D4FF0FF31A7
:1057900000902161297821B181680291C06803904D
:1057A00007E090F8281089073CD5D0E90010CDE932
:1057B00002101FB1394602A8FDF74EFF3068406C59
:1057C00078B3009804903068406C01680591406897
:1057D0000690686A30B104A8FCF7E8F8686AFCF73C
:1057E000B5F8049005A90498FFF7E8FE05A902A8FA
:1057F000FDF732FF0DF11000FCF7D8F8696A19B116
:1058000002A8FFF7E3FEB0B13068816C02A8FFF791
:10581000DDFE80B1DDE90201C4E90001FFF760FFB0
:10582000ABE706E06069401E60616846FCF7BEF8C1
:1058300004E06846E0E76069401E606100209CE784
:105840004001002010490020A4010020FEB50D00F9
:10585000044647D0FCF77AF8009000218561016288
:105860002846FCF773F800990290C56991F8281052
:1058700001F008062DB12846FCF768F8019036B112
:1058800015E0C4616846FCF791F802A828E090F89A
:10589000280000070BD5009805620298C46168468D
:1058A000FCF784F802A8FCF781F801A818E002A828
:1058B000FCF77CF801A8FCF779F82846FCF78EF88D
:1058C00011E004620BE02846FCF788F85EB990F816
:1058D0002810090707D501980462009805626846F8
:1058E000FCF764F8FEBD0190056A002DEBD1E8E7F6
:1058F000202201F097BF38B504001ED0FCF726F82F
:10590000009090F82810890714D5406A20B1FCF760
:105910003BFC0099002048622046FFF709FC044642
:1059200006E02046FFF7E7FF2046FCF757F8046A39
:10593000002CF6D16846FCF739F838BD70B506463C
:1059400015460C460846FCF749F8806AC00302D5A4
:105950004FF4804300E020232A4621463046BDE82C
:105960007040AFF300802DE9FF4198461646074688
:105970000D0031D00846FBF7E9FF0090846A02462B
:10598000A00726D5394601A8FDF783FE08B340F6E7
:1059900001000440012C07D0424601A9284601F02D
:1059A00041FF0098C46912E000984346026A816989
:1059B00001A8FFF7D8FFF4E7B4420AD0424601A994
:1059C0002046FFF77CFC2046FCF708F8046A002C10
:1059D000F2D16846FBF7EAFFBDE8FF812023FFF71D
:1059E000C2BF000010B504460648C06806E0A042E9
:1059F00001D1012010BDFBF7F1FF40690028F6D16D
:105A000010BD0000A4010020F0B58BB006004FF0DF
:105A1000000015460C4604900590069007903DD076
:105A200054EA05003AD03046FBF790FF0090D0E9E9
:105A30000012CDE902122A462146FCF7C3FE009867
:105A40002A4621460830FCF7BDFE0098C769684623
:105A5000FBF7ACFF2A462146384601F028FF3046C6
:105A6000FBF774FF009090F8281089070AD5816928
:105A700041B1026AFFF762FF0098026A816902A8D9
:105A8000FFF75CFF6846FBF791FF0320049007AA2D
:105A900008A831C204A9304600F028F90BB0F0BDC7
:105AA0002DE9F14187B000250798FBF74FFF0190E2
:105AB000D0E90212CDE9031207698669846A01A858
:105AC000FBF774FF44F2200814EA080F30D0DFB16E
:105AD00003A80799FFF77AFDB0B10798FFF7D2FC4A
